FH00000154BATCH-MISC20240523425640001
BH0000000000220240523200008N3683
RD0000000000120240523081818                   00026379001                   Payment                  000000000100076000
RD0000000000220240523081818                   00026381001                   Payment                  000000000100078000
RD0000000000320240523081818                   00026384001                   Payment                  000000000100081000
RD0000000000420240523081818                   00026386001                   Payment                  000000000100083000
RD0000000000520240523081818                   00026387001                   Payment                  000000000100084000
RD0000000000620240523081818                   00026388001                   Payment                  000000000100085000
RD0000000000720240523081818                   00026389001                   Payment                  000000000100086000
RD0000000000820240523081818                   00026390001                   Payment                  000000000100087000
RD0000000000920240523081818                   00026391001                   Payment                  000000000100088000
RD0000000001020240523081818                   00026392001                   Payment                  000000000100089000
RD0000000001120240523081818                   00026393001                   Payment                  000000000100090000
RD0000000001220240523081818                   00026394001                   Payment                  000000000100091000
RD0000000001320240523081818                   00026396001                   Payment                  000000000100093000
RD0000000001420240523081818                   00026397001                   Payment                  000000000100094000
RD0000000001520240523081818                   00026399001                   Payment                  000000000100096000
RD0000000001620240523081818                   00026400001                   Payment                  000000000100097000
RD0000000001720240523081818                   00026402001                   Payment                  000000000100099000
RD0000000001820240523081818                   00026403001                   Payment                  000000000100100000
RD0000000001920240523081818                   00026404001                   Payment                  000000000100101000
RD0000000002020240523081818                   00026405001                   Payment                  000000000100102000
RD0000000002120240523081818                   00026406001                   Payment                  000000000100103000
RD0000000002220240523081818                   00026407001                   Payment                  000000000100104000
RD0000000002320240523081818                   00026408001                   Payment                  000000000100105000
RD0000000002420240523081818                   00026433001                   Payment                  000000000100106000
RD0000000002520240523081818                   00026411001                   Payment                  000000000100109000
RD0000000002620240523081818                   00026413001                   Payment                  000000000100111000
RD0000000002720240523081818                   00026416001                   Payment                  000000000100114000
RD0000000002820240523081818                   00026434001                   Payment                  000000000100115000
RD0000000002920240523081818                   00026421001                   Payment                  000000000100121000
RD0000000003020240523081818                   00026422001                   Payment                  000000000100122000
RD0000000003120240523081818                   00026423001                   Payment                  000000000100123000
RD0000000003220240523081818                   00026424001                   Payment                  000000000100124000
RD0000000003320240523081818                   00026427001                   Payment                  000000000100128000
RD0000000003420240523081818                   00026428001                   Payment                  000000000100129000
RD0000000003520240523081818                   00026430001                   Payment                  000000000100131000
RD0000000003620240523081818                   00026306001                   Payment                  000000000100003000
RD0000000003720240523081818                   00026307001                   Payment                  000000000100004000
RD0000000003820240523081818                   00026309001                   Payment                  000000000100006000
RD0000000003920240523081818                   00026313001                   Payment                  000000000100010000
RD0000000004020240523081818                   00026318001                   Payment                  000000000100015000
RD0000000004120240523081818                   00026319001                   Payment                  000000000100016000
RD0000000004220240523081818                   00026322001                   Payment                  000000000100019000
RD0000000004320240523081818                   00026324001                   Payment                  000000000100021000
RD0000000004420240523081818                   00026326001                   Payment                  000000000100023000
RD0000000004520240523081818                   00026332001                   Payment                  000000000100029000
RD0000000004620240523081818                   00026334001                   Payment                  000000000100031000
RD0000000004720240523081818                   00026335001                   Payment                  000000000100032000
RD0000000004820240523081818                   00026337001                   Payment                  000000000100034000
RD0000000004920240523081818                   00026340001                   Payment                  000000000100037000
RD0000000005020240523081818                   00026341001                   Payment                  000000000100038000
RD0000000005120240523081818                   00026342001                   Payment                  000000000100039000
RD0000000005220240523081818                   00026344001                   Payment                  000000000100041000
RD0000000005320240523081818                   00026347001                   Payment                  000000000100044000
RD0000000005420240523081818                   00026348001                   Payment                  000000000100045000
RD0000000005520240523081818                   00026349001                   Payment                  000000000100046000
RD0000000005620240523081818                   00026351001                   Payment                  000000000100048000
RD0000000005720240523081818                   00026352001                   Payment                  000000000100049000
RD0000000005820240523081818                   00026353001                   Payment                  000000000100050000
RD0000000005920240523081818                   00026355001                   Payment                  000000000100052000
RD0000000006020240523081818                   00026356001                   Payment                  000000000100053000
RD0000000006120240523081818                   00026357001                   Payment                  000000000100054000
RD0000000006220240523081818                   00026359001                   Payment                  000000000100056000
RD0000000006320240523081818                   00026361001                   Payment                  000000000100058000
RD0000000006420240523081818                   00026362001                   Payment                  000000000100059000
RD0000000006520240523081818                   00026363001                   Payment                  000000000100060000
RD0000000006620240523081818                   00026364001                   Payment                  000000000100061000
RD0000000006720240523081818                   00026365001                   Payment                  000000000100062000
RD0000000006820240523081818                   00026367001                   Payment                  000000000100064000
RD0000000006920240523081818                   00026368001                   Payment                  000000000100065000
RD0000000007020240523081818                   00026371001                   Payment                  000000000100068000
RD0000000007120240523081818                   00026372001                   Payment                  000000000100069000
RD0000000007220240523081818                   00026375001                   Payment                  000000000100072000
RD0000000007320240523081818                   00026376001                   Payment                  000000000100073000
RD0000000007420240523081818                   00026378001                   Payment                  000000000100075000
RD0000000007520240523081818                   00026380001                   Payment                  000000000100077000
RD0000000007620240523081818                   00026382001                   Payment                  000000000100079000
RD0000000007720240523081818                   00026383001                   Payment                  000000000100080000
RD0000000007820240523081818                   00026385001                   Payment                  000000000100082000
RD0000000007920240523081818                   00026395001                   Payment                  000000000100092000
RD0000000008020240523081818                   00026398001                   Payment                  000000000100095000
RD0000000008120240523081818                   00026401001                   Payment                  000000000100098000
RD0000000008220240523081818                   00026409001                   Payment                  000000000100107000
RD0000000008320240523081818                   00026410001                   Payment                  000000000100108000
RD0000000008420240523081818                   00026412001                   Payment                  000000000100110000
RD0000000008520240523081818                   00026414001                   Payment                  000000000100112000
RD0000000008620240523081818                   00026415001                   Payment                  000000000100113000
RD0000000008720240523081818                   00026417001                   Payment                  000000000100116000
RD0000000008820240523081818                   00026418001                   Payment                  000000000100117000
RD0000000008920240523081818                   00026419001                   Payment                  000000000100118000
RD0000000009020240523081818                   00026420001                   Payment                  000000000100119000
RD0000000009120240523081818                   00026432001                   Payment                  000000000100120000
RD0000000009220240523081818                   00026425001                   Payment                  000000000100125000
RD0000000009320240523081818                   00026431001                   Payment                  000000000100126000
RD0000000009420240523081818                   00026426001                   Payment                  000000000100127000
RD0000000009520240523081818                   00026429001                   Payment                  000000000100130000
RD0000000009620240523081818                   00026304001                   Payment                  000000000100001000
RD0000000009720240523081818                   00026305001                   Payment                  000000000100002000
RD0000000009820240523081818                   00026308001                   Payment                  000000000100005000
RD0000000009920240523081818                   00026310001                   Payment                  000000000100007000
RD0000000010020240523081818                   00026311001                   Payment                  000000000100008000
RD0000000010120240523081818                   00026312001                   Payment                  000000000100009000
RD0000000010220240523081818                   00026314001                   Payment                  000000000100011000
RD0000000010320240523081818                   00026315001                   Payment                  000000000100012000
RD0000000010420240523081818                   00026316001                   Payment                  000000000100013000
RD0000000010520240523081818                   00026317001                   Payment                  000000000100014000
RD0000000010620240523081818                   00026320001                   Payment                  000000000100017000
RD0000000010720240523081818                   00026321001                   Payment                  000000000100018000
RD0000000010820240523081818                   00026323001                   Payment                  000000000100020000
RD0000000010920240523081818                   00026325001                   Payment                  000000000100022000
RD0000000011020240523081818                   00026327001                   Payment                  000000000100024000
RD0000000011120240523081818                   00026328001                   Payment                  000000000100025000
RD0000000011220240523081818                   00026329001                   Payment                  000000000100026000
RD0000000011320240523081818                   00026330001                   Payment                  000000000100027000
RD0000000011420240523081818                   00026331001                   Payment                  000000000100028000
RD0000000011520240523081818                   00026333001                   Payment                  000000000100030000
RD0000000011620240523081818                   00026336001                   Payment                  000000000100033000
RD0000000011720240523081818                   00026338001                   Payment                  000000000100035000
RD0000000011820240523081818                   00026339001                   Payment                  000000000100036000
RD0000000011920240523081818                   00026343001                   Payment                  000000000100040000
RD0000000012020240523081818                   00026345001                   Payment                  000000000100042000
RD0000000012120240523081818                   00026346001                   Payment                  000000000100043000
RD0000000012220240523081818                   00026350001                   Payment                  000000000100047000
RD0000000012320240523081818                   00026354001                   Payment                  000000000100051000
RD0000000012420240523081818                   00026358001                   Payment                  000000000100055000
RD0000000012520240523081818                   00026360001                   Payment                  000000000100057000
RD0000000012620240523081818                   00026366001                   Payment                  000000000100063000
RD0000000012720240523081818                   00026369001                   Payment                  000000000100066000
RD0000000012820240523081818                   00026370001                   Payment                  000000000100067000
RD0000000012920240523081818                   00026373001                   Payment                  000000000100070000
RD0000000013020240523081818                   00026374001                   Payment                  000000000100071000
RD0000000013120240523081818                   00026377001                   Payment                  000000000100074000
BT0000000131000000013108646000
FT0000000001
